:100000000C9462000C948A000C948A000C948A0070
:100010000C948A000C948A000C948A000C948A0038
:100020000C948A000C948A000C948A000C948A0028
:100030000C948A000C948A000C948A000C948A0018
:100040000C9422020C948A000C9482040C94C50433
:100050000C948A000C948A000C948A000C948A00F8
:100060000C948A000C948A00000000070002010032
:100070000003040600000000000000000102040864
:100080001020408001020408102001020408102002
:10009000040404040404040402020202020203032E
:1000A00003030303000000002300260029000000D2
:1000B0000000250028002B0000000000240027007D
:1000C0002A008A0511241FBECFEFD8E0DEBFCDBFC6
:1000D00011E0A0E0B1E0E8EFFBE002C005900D9276
:1000E000A031B107D9F711E0A0E1B1E001C01D9244
:1000F000A53CB107E1F710E0C2E6D0E004C02197CB
:10010000FE010E94F405C136D107C9F70E94C5055A
:100110000C94FA050C94000060E089E00E94C9018B
:100120008AE090E00C94B70261E089E00E94C90186
:100130008AE090E00C94B7020F931F93CF93DF9364
:10014000CFE0D0E087E290E00E94B70261E08BE070
:100150000E94C90160E08BE00E94C90189E00E9411
:10016000F9018C0186E290E00E94B70221E030E0C4
:10017000012B11F420E030E00C2E02C0220F331FBF
:100180000A94E2F78091100190911101282B392BEC
:1001900030931101209310012197A0F6DF91CF91A8
:1001A0001F910F910895CF93DF93D82FC8E061E09E
:1001B00089E0D7FF0DC00E94C9018CE390E00E9446
:1001C000B70260E089E00E94C90184E190E00CC0C0
:1001D0000E94C90184E190E00E94B70260E089E0DA
:1001E0000E94C9018CE390E00E94B702DD0FC1506C
:1001F000F1F6DF91CF91089584E90E94D30086E162
:100200000E94D30084EF0C94D30061E089E00E9447
:100210008D0161E08AE00E948D0161E08BE00E9427
:100220008D0140E855E260E070E08BE191E00E94D2
:10023000000564E170E080E090E00E9491020E947D
:100240008C000E94FC000C94940061E089E00E9404
:10025000C90187E190E00E94B70260E089E00E9456
:10026000C9018EE190E00E94B70260E089E00E943F
:100270008D0186E190E00C94B7028DE290E00E943F
:10028000B70261E089E00E948D0160E089E00E9490
:10029000C9018EE190E00C94B7020E948C0081E1CC
:1002A0000E94D3000E9425010E949C000E943D01F3
:1002B0000E949400609110017091110140E150E0A2
:1002C0008BE191E00C94E003833081F028F48130DD
:1002D00099F08230A1F008958630A9F08730B9F006
:1002E0008430D1F4809180008F7D03C080918000A4
:1002F0008F7780938000089584B58F7702C084B58E
:100300008F7D84BD08958091B0008F7703C0809168
:10031000B0008F7D8093B0000895CF93DF9390E07D
:10032000FC01E458FF4F2491FC01E057FF4F8491FA
:10033000882361F190E0880F991FFC01E854FF4F7A
:10034000C591D491FC01E255FF4FA591B491611183
:1003500009C09FB7F8948881209582238883EC9107
:100360002E230BC0623061F49FB7F8943881822F3E
:10037000809583238883EC912E2B2C939FBF06C0FE
:100380008FB7F894E8812E2B28838FBFDF91CF9110
:1003900008951F93CF93DF93282F30E0F901E85998
:1003A000FF4F8491F901E458FF4FD491F901E057D0
:1003B000FF4FC491CC23C9F0162F81110E94640114
:1003C000EC2FF0E0EE0FFF1FE255FF4FA591B49127
:1003D0008FB7F894111105C09C91ED2FE095E9239A
:1003E00002C0EC91ED2BEC938FBFDF91CF911F9169
:1003F0000895CF93DF93282F30E0F901E859FF4F9C
:100400008491F901E458FF4FD491F901E057FF4F6F
:10041000C491CC2391F081110E946401EC2FF0E093
:10042000EE0FFF1FEC55FF4FA591B491EC91ED231A
:1004300081E090E021F480E002C080E090E0DF9174
:10044000CF9108951F920F920FB60F9211242F9300
:100450003F938F939F93AF93BF938091130190919C
:100460001401A0911501B09116013091120123E001
:10047000230F2D3720F40196A11DB11D05C026E8DC
:10048000230F0296A11DB11D209312018093130129
:1004900090931401A0931501B09316018091170158
:1004A00090911801A0911901B0911A010196A11D16
:1004B000B11D8093170190931801A0931901B09377
:1004C0001A01BF91AF919F918F913F912F910F9002
:1004D0000FBE0F901F9018953FB7F89480911701A9
:1004E00090911801A0911901B0911A0126B5A89B0D
:1004F00005C02F3F19F00196A11DB11D3FBFBA2FB6
:10050000A92F982F8827820F911DA11DB11DBC0115
:10051000CD0142E0660F771F881F991F4A95D1F7DA
:100520000895CF92DF92EF92FF92CF93DF936B010A
:100530007C010E946C02EB01C114D104E104F104BE
:1005400079F00E946C026C1B7D0B683E7340A0F337
:1005500081E0C81AD108E108F108C851DC4FECCF9E
:10056000DF91CF91FF90EF90DF90CF9008950197AA
:1005700039F0880F991F880F991F02970197F1F79B
:100580000895789484B5826084BD84B5816084BD0B
:1005900085B5826085BD85B5816085BDEEE6F0E0FC
:1005A000808181608083E1E8F0E010828081826058
:1005B0008083808181608083E0E8F0E080818160D9
:1005C0008083E1EBF0E0808184608083E0EBF0E009
:1005D000808181608083EAE7F0E0808184608083AD
:1005E0008081826080838081816080838081806857
:1005F00080831092C1000895CF92DF92EF92FF9214
:100600000F931F93CF93DF936C01EB017B01E40EFB
:10061000F51E00E010E0CE15DF0561F06991D6010E
:10062000ED91FC910190F081E02DC6010995080F34
:10063000191FF1CFC801DF91CF911F910F91FF904A
:10064000EF90DF90CF9008956115710579F0FB016F
:1006500001900020E9F73197AF01461B570BDC01F1
:10066000ED91FC910280F381E02D099480E090E00F
:100670000895DC01ED91FC910190F081E02D099449
:100680008F929F92AF92BF92CF92DF92EF92FF92A2
:100690000F931F93CF93DF93CDB7DEB7A1970FB61C
:1006A000F894DEBF0FBECDBF6C01142FE52FCB0138
:1006B000022F19A2223008F40AE07E0121E2E20EA4
:1006C000F11C802E912CA12CB12C612F7E2FA50125
:1006D00094010E94D205029F1019112481E0E81AAA
:1006E000F1081A3014F4105D01C0195CF701108391
:1006F000122FE32FCA01232B242B252B31F7B7010F
:10070000C6010E942403A1960FB6F894DEBF0FBE67
:10071000CDBFDF91CF911F910F91FF90EF90DF90B0
:10072000CF90BF90AF909F908F900895CF92DF921F
:10073000EF92FF920F931F93CF93DF93EC016A0127
:100740007B012115310579F4E881F9810190F0816F
:10075000E02D642FDF91CF911F910F91FF90EF90CB
:10076000DF90CF9009942A303105E9F477FF1AC061
:100770006DE20E9439038C0144275527BA014C19B8
:100780005D096E097F092AE0CE010E944003800FB7
:10079000911FDF91CF911F910F91FF90EF90DF900C
:1007A000CF9008952AE0B701A601CE01DF91CF9145
:1007B0001F910F91FF90EF90DF90CF900C9440032A
:1007C0009A01AB01662757FD6095762F0C9496032E
:1007D000FC0124853585F901E05CFF4F8081918122
:1007E000329620813181821B930B8F739927089554
:1007F000DC011C96ED91FC911D97DF01A05CBF4FC1
:100800002D913C91119712968D919C9111972817DB
:10081000390739F08D919C91E80FF91F808190E0A4
:1008200008958FEF9FEF0895FC01A485B585FD0124
:10083000E05CFF4F208131813296808191812817C1
:10084000390779F080819181A80FB91F8C9120819F
:1008500031812F5F3F4F2F7333273183208390E007
:1008600008958FEF9FEF0895FC0181A1882329F05F
:10087000A489B5898C9186FFFBCF11A208950F93AF
:100880001F93CF93DF93FC01A685B7858D01005C94
:100890001F4FE8018881998101968F739927AD01D7
:1008A0004E5B5F4FEA012881398182179307D1F3AC
:1008B000E80128813981A20FB31F6C93A685B78503
:1008C000A05CBF4F11969C938E93A689B7892C91FB
:1008D00081E090E0078C02C0880F991F0A94E2F72C
:1008E000822B8C9381E081A30488F589E02D80819F
:1008F0008064808381E090E0DF91CF911F910F9120
:10090000089508951F920F920FB60F9211242F93FE
:100910004F935F938F939F93EF93FF938091C000CA
:1009200082FD1CC02091C6008091C1019091C2013E
:1009300001968F7399274091C3015091C401841788
:10094000950771F0E091C101F091C201EF57FE4FA0
:1009500020839093C2018093C10102C08091C600A0
:10096000FF91EF919F918F915F914F912F910F90F8
:100970000FBE0F901F9018958BE191E00E94E80345
:10098000892B11F00C94810408951F920F920FB6D9
:100990000F9211242F933F938F939F93EF93FF9385
:1009A00020917D0130917E0180917F0190918001A5
:1009B0002817390731F48091C1008F7D8093C100E1
:1009C00014C0E0917F01F0918001E35CFE4F208133
:1009D00080917F019091800101968F739927909368
:1009E000800180937F012093C600FF91EF919F913A
:1009F0008F913F912F910F900FBE0F901F901895E0
:100A0000CF92DF92EF92FF920F931F93CF93DF93DA
:100A1000EC016A017B01411581EE58076105710502
:100A200011F1EC89FD8981E090E008A002C0880FF7
:100A3000991F0A94E2F7808360E079E08DE390E00B
:100A4000A70196010E94D20589019A01015011095E
:100A500021093109369527951795079598010115B4
:100A600080E11807A8F0EC89FD89108260E874E83D
:100A70008EE190E0A70196010E94D205DA01C9013A
:100A80000197A109B109B695A795979587959C01FE
:100A9000E889F9893083EA89FB89208319A2EE89E4
:100AA000FF89408181E090E09C010C8C02C0220F04
:100AB000331F0A94E2F7242B2083EE89FF894081BB
:100AC0009C010D8C02C0220F331F0A94E2F7242BE5
:100AD0002083EE89FF8940819C010E8C02C0220F89
:100AE000331F0A94E2F7242B2083EE89FF892081AB
:100AF0000F8C02C0880F991F0A94E2F78095822319
:100B00008083DF91CF911F910F91FF90EF90DF9045
:100B1000CF900895EBE1F1E01382128288EE93E02A
:100B2000A0E0B0E084839583A683B78384E091E05E
:100B30009183808381E891E0958784878DE391E0BC
:100B40009787868785EC90E0918B808B84EC90E092
:100B5000938B828B80EC90E0958B848B81EC90E082
:100B6000978B868B82EC90E0918F808F86EC90E063
:100B7000938F828F84E0848F83E0858F87E0868FD8
:100B800085E0878F81E080A308950E94C1020E94C2
:100B90000501CCEBD4E00E944D012097E1F30E94C7
:100BA000BC04F9CFA1E21A2EAA1BBB1BFD010DC08C
:100BB000AA1FBB1FEE1FFF1FA217B307E407F5070D
:100BC00020F0A21BB30BE40BF50B661F771F881FE9
:100BD000991F1A9469F760957095809590959B017F
:100BE000AC01BD01CF010895EE0FFF1F0590F491F8
:080BF000E02D0994F894FFCFF9
:100BF800000000003F04FC02E8031404F803340476
:00000001FF
